{
  "_format": "hh-sol-artifact-1",
  "contractName": "UploadVerification",
  "sourceName": "contracts/UploadVerification.sol",
  "abi": [
    {
      "anonymous": false,
      "inputs": [
        {
          "indexed": false,
          "internalType": "uint256",
          "name": "songId",
          "type": "uint256"
        },
        {
          "indexed": false,
          "internalType": "address",
          "name": "uploader",
          "type": "address"
        },
        {
          "indexed": false,
          "internalType": "uint256",
          "name": "penalty",
          "type": "uint256"
        }
      ],
      "name": "SongRejected",
      "type": "event"
    },
    {
      "anonymous": false,
      "inputs": [
        {
          "indexed": false,
          "internalType": "uint256",
          "name": "songId",
          "type": "uint256"
        },
        {
          "indexed": false,
          "internalType": "address",
          "name": "uploader",
          "type": "address"
        }
      ],
      "name": "SongUploaded",
      "type": "event"
    },
    {
      "anonymous": false,
      "inputs": [
        {
          "indexed": false,
          "internalType": "uint256",
          "name": "songId",
          "type": "uint256"
        }
      ],
      "name": "SongVerified",
      "type": "event"
    },
    {
      "inputs": [],
      "name": "minReputation",
      "outputs": [
        {
          "internalType": "uint256",
          "name": "",
          "type": "uint256"
        }
      ],
      "stateMutability": "view",
      "type": "function"
    },
    {
      "inputs": [],
      "name": "minStake",
      "outputs": [
        {
          "internalType": "uint256",
          "name": "",
          "type": "uint256"
        }
      ],
      "stateMutability": "view",
      "type": "function"
    },
    {
      "inputs": [
        {
          "internalType": "address",
          "name": "",
          "type": "address"
        }
      ],
      "name": "reputation",
      "outputs": [
        {
          "internalType": "uint256",
          "name": "",
          "type": "uint256"
        }
      ],
      "stateMutability": "view",
      "type": "function"
    },
    {
      "inputs": [
        {
          "internalType": "uint256",
          "name": "",
          "type": "uint256"
        }
      ],
      "name": "songs",
      "outputs": [
        {
          "internalType": "uint256",
          "name": "songId",
          "type": "uint256"
        },
        {
          "internalType": "address",
          "name": "uploader",
          "type": "address"
        },
        {
          "internalType": "uint256",
          "name": "stakeAmount",
          "type": "uint256"
        },
        {
          "internalType": "bool",
          "name": "verified",
          "type": "bool"
        },
        {
          "internalType": "uint256",
          "name": "reportCount",
          "type": "uint256"
        },
        {
          "internalType": "uint256",
          "name": "uniqueListeners",
          "type": "uint256"
        }
      ],
      "stateMutability": "view",
      "type": "function"
    },
    {
      "inputs": [
        {
          "internalType": "uint256",
          "name": "_songId",
          "type": "uint256"
        }
      ],
      "name": "uploadSong",
      "outputs": [],
      "stateMutability": "payable",
      "type": "function"
    }
  ],
  "bytecode": "0x6080604052674563918244f40000600255600a60035534801561002157600080fd5b50610630806100316000396000f3fe60806040526004361061004a5760003560e01c8063304cff301461004f578063375b3c0a1461009157806389a967a0146100bc578063b9f79451146100d8578063ef7f0ab614610115575b600080fd5b34801561005b57600080fd5b50610076600480360381019061007191906103c1565b610140565b60405161008896959493929190610459565b60405180910390f35b34801561009d57600080fd5b506100a66101a9565b6040516100b391906104ba565b60405180910390f35b6100d660048036038101906100d191906103c1565b6101af565b005b3480156100e457600080fd5b506100ff60048036038101906100fa9190610501565b610368565b60405161010c91906104ba565b60405180910390f35b34801561012157600080fd5b5061012a610380565b60405161013791906104ba565b60405180910390f35b60006020528060005260406000206000915090508060000154908060010160009054906101000a900473ffffffffffffffffffffffffffffffffffffffff16908060020154908060030160009054906101000a900460ff16908060040154908060050154905086565b60025481565b600354600160003373ffffffffffffffffffffffffffffffffffffffff1673ffffffffffffffffffffffffffffffffffffffff1681526020019081526020016000205410158061020157506002543410155b610240576040517f08c379a0000000000000000000000000000000000000000000000000000000008152600401610237906105b1565b60405180910390fd5b6040518060c001604052808281526020013373ffffffffffffffffffffffffffffffffffffffff1681526020013481526020016000151581526020016000815260200160008152506000808381526020019081526020016000206000820151816000015560208201518160010160006101000a81548173ffffffffffffffffffffffffffffffffffffffff021916908373ffffffffffffffffffffffffffffffffffffffff1602179055506040820151816002015560608201518160030160006101000a81548160ff0219169083151502179055506080820151816004015560a082015181600501559050507ffc382b97c2c9483973e50d79375169affb62bac4105aeb5a6f0af2e8fe82a1d6813360405161035d9291906105d1565b60405180910390a150565b60016020528060005260406000206000915090505481565b60035481565b600080fd5b6000819050919050565b61039e8161038b565b81146103a957600080fd5b50565b6000813590506103bb81610395565b92915050565b6000602082840312156103d7576103d6610386565b5b60006103e5848285016103ac565b91505092915050565b6103f78161038b565b82525050565b600073ffffffffffffffffffffffffffffffffffffffff82169050919050565b6000610428826103fd565b9050919050565b6104388161041d565b82525050565b60008115159050919050565b6104538161043e565b82525050565b600060c08201905061046e60008301896103ee565b61047b602083018861042f565b61048860408301876103ee565b610495606083018661044a565b6104a260808301856103ee565b6104af60a08301846103ee565b979650505050505050565b60006020820190506104cf60008301846103ee565b92915050565b6104de8161041d565b81146104e957600080fd5b50565b6000813590506104fb816104d5565b92915050565b60006020828403121561051757610516610386565b5b6000610525848285016104ec565b91505092915050565b600082825260208201905092915050565b7f4c6f772072657075746174696f6e206f7220696e73756666696369656e74207360008201527f74616b652e000000000000000000000000000000000000000000000000000000602082015250565b600061059b60258361052e565b91506105a68261053f565b604082019050919050565b600060208201905081810360008301526105ca8161058e565b9050919050565b60006040820190506105e660008301856103ee565b6105f3602083018461042f565b939250505056fea2646970667358221220e44b19b5f4cd1a5114762304fb857959cf760f80d4536cb2c8b02ab727495c5d64736f6c63430008140033",
  "linkReferences": {},
  "deployedLinkReferences": {}
}