{"contracts/StreamingVerification.sol":{"StreamingVerification":{"abi":[{"anonymous":false,"inputs":[{"indexed":false,"internalType":"uint256","name":"songId","type":"uint256"},{"indexed":false,"internalType":"address","name":"listener","type":"address"}],"name":"StreamRecorded","type":"event"},{"inputs":[{"internalType":"uint256","name":"_songId","type":"uint256"}],"name":"recordStream","outputs":[],"stateMutability":"nonpayable","type":"function"},{"inputs":[{"internalType":"uint256","name":"","type":"uint256"}],"name":"streamCount","outputs":[{"internalType":"uint256","name":"","type":"uint256"}],"stateMutability":"view","type":"function"},{"inputs":[{"internalType":"uint256","name":"","type":"uint256"},{"internalType":"address","name":"","type":"address"}],"name":"uniqueListeners","outputs":[{"internalType":"bool","name":"","type":"bool"}],"stateMutability":"view","type":"function"}],"evm":{"bytecode":{"linkReferences":{},"object":"608060405234801561001057600080fd5b50610561806100206000396000f3fe608060405234801561001057600080fd5b50600436106100415760003560e01c806307f6435b1461004657806353414eb814610076578063a47bc27514610092575b600080fd5b610060600480360381019061005b91906102ae565b6100c2565b60405161006d91906102ea565b60405180910390f35b610090600480360381019061008b91906102ae565b6100da565b005b6100ac60048036038101906100a79190610363565b610244565b6040516100b991906103be565b60405180910390f35b60016020528060005260406000206000915090505481565b60008082815260200190815260200160002060003373ffffffffffffffffffffffffffffffffffffffff1673ffffffffffffffffffffffffffffffffffffffff16815260200190815260200160002060009054906101000a900460ff1615610177576040517f08c379a000000000000000000000000000000000000000000000000000000000815260040161016e9061045c565b60405180910390fd5b600160008083815260200190815260200160002060003373ffffffffffffffffffffffffffffffffffffffff1673ffffffffffffffffffffffffffffffffffffffff16815260200190815260200160002060006101000a81548160ff021916908315150217905550600160008281526020019081526020016000206000815480929190610203906104ab565b91905055507f3c360dad515fd2d40cc40d25f5664c341606b922cf2208f64aff1e5591f84ed28133604051610239929190610502565b60405180910390a150565b60006020528160005260406000206020528060005260406000206000915091509054906101000a900460ff1681565b600080fd5b6000819050919050565b61028b81610278565b811461029657600080fd5b50565b6000813590506102a881610282565b92915050565b6000602082840312156102c4576102c3610273565b5b60006102d284828501610299565b91505092915050565b6102e481610278565b82525050565b60006020820190506102ff60008301846102db565b92915050565b600073ffffffffffffffffffffffffffffffffffffffff82169050919050565b600061033082610305565b9050919050565b61034081610325565b811461034b57600080fd5b50565b60008135905061035d81610337565b92915050565b6000806040838503121561037a57610379610273565b5b600061038885828601610299565b92505060206103998582860161034e565b9150509250929050565b60008115159050919050565b6103b8816103a3565b82525050565b60006020820190506103d360008301846103af565b92915050565b600082825260208201905092915050565b7f53656c662d73747265616d696e67206f72206475706c6963617465206c69737460008201527f656e65722064657465637465642e000000000000000000000000000000000000602082015250565b6000610446602e836103d9565b9150610451826103ea565b604082019050919050565b6000602082019050818103600083015261047581610439565b9050919050565b7f4e487b7100000000000000000000000000000000000000000000000000000000600052601160045260246000fd5b60006104b682610278565b91507fffffffffffffffffffffffffffffffffffffffffffffffffffffffffffffffff82036104e8576104e761047c565b5b600182019050919050565b6104fc81610325565b82525050565b600060408201905061051760008301856102db565b61052460208301846104f3565b939250505056fea264697066735822122042c6cebdc7bf2d0552765bbfd1857021b9481b0a17ddca9c4d3ceb2393cef5f664736f6c63430008140033","opcodes":"PUSH1 0x80 PUSH1 0x40 MSTORE CALLVALUE DUP1 ISZERO PUSH2 0x10 JUMPI PUSH1 0x0 DUP1 REVERT JUMPDEST POP PUSH2 0x561 DUP1 PUSH2 0x20 PUSH1 0x0 CODECOPY PUSH1 0x0 RETURN INVALID PUSH1 0x80 PUSH1 0x40 MSTORE CALLVALUE DUP1 ISZERO PUSH2 0x10 JUMPI PUSH1 0x0 DUP1 REVERT JUMPDEST POP PUSH1 0x4 CALLDATASIZE LT PUSH2 0x41 JUMPI PUSH1 0x0 CALLDATALOAD PUSH1 0xE0 SHR DUP1 PUSH4 0x7F6435B EQ PUSH2 0x46 JUMPI DUP1 PUSH4 0x53414EB8 EQ PUSH2 0x76 JUMPI DUP1 PUSH4 0xA47BC275 EQ PUSH2 0x92 JUMPI JUMPDEST PUSH1 0x0 DUP1 REVERT JUMPDEST PUSH2 0x60 PUSH1 0x4 DUP1 CALLDATASIZE SUB DUP2 ADD SWAP1 PUSH2 0x5B SWAP2 SWAP1 PUSH2 0x2AE JUMP JUMPDEST PUSH2 0xC2 JUMP JUMPDEST PUSH1 0x40 MLOAD PUSH2 0x6D SWAP2 SWAP1 PUSH2 0x2EA JUMP JUMPDEST PUSH1 0x40 MLOAD DUP1 SWAP2 SUB SWAP1 RETURN JUMPDEST PUSH2 0x90 PUSH1 0x4 DUP1 CALLDATASIZE SUB DUP2 ADD SWAP1 PUSH2 0x8B SWAP2 SWAP1 PUSH2 0x2AE JUMP JUMPDEST PUSH2 0xDA JUMP JUMPDEST STOP JUMPDEST PUSH2 0xAC PUSH1 0x4 DUP1 CALLDATASIZE SUB DUP2 ADD SWAP1 PUSH2 0xA7 SWAP2 SWAP1 PUSH2 0x363 JUMP JUMPDEST PUSH2 0x244 JUMP JUMPDEST PUSH1 0x40 MLOAD PUSH2 0xB9 SWAP2 SWAP1 PUSH2 0x3BE JUMP JUMPDEST PUSH1 0x40 MLOAD DUP1 SWAP2 SUB SWAP1 RETURN JUMPDEST PUSH1 0x1 PUSH1 0x20 MSTORE DUP1 PUSH1 0x0 MSTORE PUSH1 0x40 PUSH1 0x0 KECCAK256 PUSH1 0x0 SWAP2 POP SWAP1 POP SLOAD DUP2 JUMP JUMPDEST PUSH1 0x0 DUP1 DUP3 DUP2 MSTORE PUSH1 0x20 ADD SWAP1 DUP2 MSTORE PUSH1 0x20 ADD PUSH1 0x0 KECCAK256 PUSH1 0x0 CALLER PUSH20 0xFFFFFFFFFFFFFFFFFFFFFFFFFFFFFFFFFFFFFFFF AND PUSH20 0xFFFFFFFFFFFFFFFFFFFFFFFFFFFFFFFFFFFFFFFF AND DUP2 MSTORE PUSH1 0x20 ADD SWAP1 DUP2 MSTORE PUSH1 0x20 ADD PUSH1 0x0 KECCAK256 PUSH1 0x0 SWAP1 SLOAD SWAP1 PUSH2 0x100 EXP SWAP1 DIV PUSH1 0xFF AND ISZERO PUSH2 0x177 JUMPI PUSH1 0x40 MLOAD PUSH32 0x8C379A000000000000000000000000000000000000000000000000000000000 DUP2 MSTORE PUSH1 0x4 ADD PUSH2 0x16E SWAP1 PUSH2 0x45C JUMP JUMPDEST PUSH1 0x40 MLOAD DUP1 SWAP2 SUB SWAP1 REVERT JUMPDEST PUSH1 0x1 PUSH1 0x0 DUP1 DUP4 DUP2 MSTORE PUSH1 0x20 ADD SWAP1 DUP2 MSTORE PUSH1 0x20 ADD PUSH1 0x0 KECCAK256 PUSH1 0x0 CALLER PUSH20 0xFFFFFFFFFFFFFFFFFFFFFFFFFFFFFFFFFFFFFFFF AND PUSH20 0xFFFFFFFFFFFFFFFFFFFFFFFFFFFFFFFFFFFFFFFF AND DUP2 MSTORE PUSH1 0x20 ADD SWAP1 DUP2 MSTORE PUSH1 0x20 ADD PUSH1 0x0 KECCAK256 PUSH1 0x0 PUSH2 0x100 EXP DUP2 SLOAD DUP2 PUSH1 0xFF MUL NOT AND SWAP1 DUP4 ISZERO ISZERO MUL OR SWAP1 SSTORE POP PUSH1 0x1 PUSH1 0x0 DUP3 DUP2 MSTORE PUSH1 0x20 ADD SWAP1 DUP2 MSTORE PUSH1 0x20 ADD PUSH1 0x0 KECCAK256 PUSH1 0x0 DUP2 SLOAD DUP1 SWAP3 SWAP2 SWAP1 PUSH2 0x203 SWAP1 PUSH2 0x4AB JUMP JUMPDEST SWAP2 SWAP1 POP SSTORE POP PUSH32 0x3C360DAD515FD2D40CC40D25F5664C341606B922CF2208F64AFF1E5591F84ED2 DUP2 CALLER PUSH1 0x40 MLOAD PUSH2 0x239 SWAP3 SWAP2 SWAP1 PUSH2 0x502 JUMP JUMPDEST PUSH1 0x40 MLOAD DUP1 SWAP2 SUB SWAP1 LOG1 POP JUMP JUMPDEST PUSH1 0x0 PUSH1 0x20 MSTORE DUP2 PUSH1 0x0 MSTORE PUSH1 0x40 PUSH1 0x0 KECCAK256 PUSH1 0x20 MSTORE DUP1 PUSH1 0x0 MSTORE PUSH1 0x40 PUSH1 0x0 KECCAK256 PUSH1 0x0 SWAP2 POP SWAP2 POP SWAP1 SLOAD SWAP1 PUSH2 0x100 EXP SWAP1 DIV PUSH1 0xFF AND DUP2 JUMP JUMPDEST PUSH1 0x0 DUP1 REVERT JUMPDEST PUSH1 0x0 DUP2 SWAP1 POP SWAP2 SWAP1 POP JUMP JUMPDEST PUSH2 0x28B DUP2 PUSH2 0x278 JUMP JUMPDEST DUP2 EQ PUSH2 0x296 JUMPI PUSH1 0x0 DUP1 REVERT JUMPDEST POP JUMP JUMPDEST PUSH1 0x0 DUP2 CALLDATALOAD SWAP1 POP PUSH2 0x2A8 DUP2 PUSH2 0x282 JUMP JUMPDEST SWAP3 SWAP2 POP POP JUMP JUMPDEST PUSH1 0x0 PUSH1 0x20 DUP3 DUP5 SUB SLT ISZERO PUSH2 0x2C4 JUMPI PUSH2 0x2C3 PUSH2 0x273 JUMP JUMPDEST JUMPDEST PUSH1 0x0 PUSH2 0x2D2 DUP5 DUP3 DUP6 ADD PUSH2 0x299 JUMP JUMPDEST SWAP2 POP POP SWAP3 SWAP2 POP POP JUMP JUMPDEST PUSH2 0x2E4 DUP2 PUSH2 0x278 JUMP JUMPDEST DUP3 MSTORE POP POP JUMP JUMPDEST PUSH1 0x0 PUSH1 0x20 DUP3 ADD SWAP1 POP PUSH2 0x2FF PUSH1 0x0 DUP4 ADD DUP5 PUSH2 0x2DB JUMP JUMPDEST SWAP3 SWAP2 POP POP JUMP JUMPDEST PUSH1 0x0 PUSH20 0xFFFFFFFFFFFFFFFFFFFFFFFFFFFFFFFFFFFFFFFF DUP3 AND SWAP1 POP SWAP2 SWAP1 POP JUMP JUMPDEST PUSH1 0x0 PUSH2 0x330 DUP3 PUSH2 0x305 JUMP JUMPDEST SWAP1 POP SWAP2 SWAP1 POP JUMP JUMPDEST PUSH2 0x340 DUP2 PUSH2 0x325 JUMP JUMPDEST DUP2 EQ PUSH2 0x34B JUMPI PUSH1 0x0 DUP1 REVERT JUMPDEST POP JUMP JUMPDEST PUSH1 0x0 DUP2 CALLDATALOAD SWAP1 POP PUSH2 0x35D DUP2 PUSH2 0x337 JUMP JUMPDEST SWAP3 SWAP2 POP POP JUMP JUMPDEST PUSH1 0x0 DUP1 PUSH1 0x40 DUP4 DUP6 SUB SLT ISZERO PUSH2 0x37A JUMPI PUSH2 0x379 PUSH2 0x273 JUMP JUMPDEST JUMPDEST PUSH1 0x0 PUSH2 0x388 DUP6 DUP3 DUP7 ADD PUSH2 0x299 JUMP JUMPDEST SWAP3 POP POP PUSH1 0x20 PUSH2 0x399 DUP6 DUP3 DUP7 ADD PUSH2 0x34E JUMP JUMPDEST SWAP2 POP POP SWAP3 POP SWAP3 SWAP1 POP JUMP JUMPDEST PUSH1 0x0 DUP2 ISZERO ISZERO SWAP1 POP SWAP2 SWAP1 POP JUMP JUMPDEST PUSH2 0x3B8 DUP2 PUSH2 0x3A3 JUMP JUMPDEST DUP3 MSTORE POP POP JUMP JUMPDEST PUSH1 0x0 PUSH1 0x20 DUP3 ADD SWAP1 POP PUSH2 0x3D3 PUSH1 0x0 DUP4 ADD DUP5 PUSH2 0x3AF JUMP JUMPDEST SWAP3 SWAP2 POP POP JUMP JUMPDEST PUSH1 0x0 DUP3 DUP3 MSTORE PUSH1 0x20 DUP3 ADD SWAP1 POP SWAP3 SWAP2 POP POP JUMP JUMPDEST PUSH32 0x53656C662D73747265616D696E67206F72206475706C6963617465206C697374 PUSH1 0x0 DUP3 ADD MSTORE PUSH32 0x656E65722064657465637465642E000000000000000000000000000000000000 PUSH1 0x20 DUP3 ADD MSTORE POP JUMP JUMPDEST PUSH1 0x0 PUSH2 0x446 PUSH1 0x2E DUP4 PUSH2 0x3D9 JUMP JUMPDEST SWAP2 POP PUSH2 0x451 DUP3 PUSH2 0x3EA JUMP JUMPDEST PUSH1 0x40 DUP3 ADD SWAP1 POP SWAP2 SWAP1 POP JUMP JUMPDEST PUSH1 0x0 PUSH1 0x20 DUP3 ADD SWAP1 POP DUP2 DUP2 SUB PUSH1 0x0 DUP4 ADD MSTORE PUSH2 0x475 DUP2 PUSH2 0x439 JUMP JUMPDEST SWAP1 POP SWAP2 SWAP1 POP JUMP JUMPDEST PUSH32 0x4E487B7100000000000000000000000000000000000000000000000000000000 PUSH1 0x0 MSTORE PUSH1 0x11 PUSH1 0x4 MSTORE PUSH1 0x24 PUSH1 0x0 REVERT JUMPDEST PUSH1 0x0 PUSH2 0x4B6 DUP3 PUSH2 0x278 JUMP JUMPDEST SWAP2 POP PUSH32 0xFFFFFFFFFFFFFFFFFFFFFFFFFFFFFFFFFFFFFFFFFFFFFFFFFFFFFFFFFFFFFFFF DUP3 SUB PUSH2 0x4E8 JUMPI PUSH2 0x4E7 PUSH2 0x47C JUMP JUMPDEST JUMPDEST PUSH1 0x1 DUP3 ADD SWAP1 POP SWAP2 SWAP1 POP JUMP JUMPDEST PUSH2 0x4FC DUP2 PUSH2 0x325 JUMP JUMPDEST DUP3 MSTORE POP POP JUMP JUMPDEST PUSH1 0x0 PUSH1 0x40 DUP3 ADD SWAP1 POP PUSH2 0x517 PUSH1 0x0 DUP4 ADD DUP6 PUSH2 0x2DB JUMP JUMPDEST PUSH2 0x524 PUSH1 0x20 DUP4 ADD DUP5 PUSH2 0x4F3 JUMP JUMPDEST SWAP4 SWAP3 POP POP POP JUMP INVALID LOG2 PUSH5 0x6970667358 0x22 SLT KECCAK256 TIMESTAMP 0xC6 0xCE 0xBD 0xC7 0xBF 0x2D SDIV MSTORE PUSH23 0x5BBFD1857021B9481B0A17DDCA9C4D3CEB2393CEF5F664 PUSH20 0x6F6C634300081400330000000000000000000000 "},"methodIdentifiers":{"recordStream(uint256)":"53414eb8","streamCount(uint256)":"07f6435b","uniqueListeners(uint256,address)":"a47bc275"}}}}}