{
  "_format": "hh-sol-artifact-1",
  "contractName": "StreamingVerification",
  "sourceName": "contracts/StreamingVerification.sol",
  "abi": [
    {
      "anonymous": false,
      "inputs": [
        {
          "indexed": false,
          "internalType": "uint256",
          "name": "songId",
          "type": "uint256"
        },
        {
          "indexed": false,
          "internalType": "address",
          "name": "listener",
          "type": "address"
        }
      ],
      "name": "StreamRecorded",
      "type": "event"
    },
    {
      "inputs": [
        {
          "internalType": "uint256",
          "name": "_songId",
          "type": "uint256"
        }
      ],
      "name": "recordStream",
      "outputs": [],
      "stateMutability": "nonpayable",
      "type": "function"
    },
    {
      "inputs": [
        {
          "internalType": "uint256",
          "name": "",
          "type": "uint256"
        }
      ],
      "name": "streamCount",
      "outputs": [
        {
          "internalType": "uint256",
          "name": "",
          "type": "uint256"
        }
      ],
      "stateMutability": "view",
      "type": "function"
    },
    {
      "inputs": [
        {
          "internalType": "uint256",
          "name": "",
          "type": "uint256"
        },
        {
          "internalType": "address",
          "name": "",
          "type": "address"
        }
      ],
      "name": "uniqueListeners",
      "outputs": [
        {
          "internalType": "bool",
          "name": "",
          "type": "bool"
        }
      ],
      "stateMutability": "view",
      "type": "function"
    }
  ],
  "bytecode": "0x608060405234801561001057600080fd5b50610561806100206000396000f3fe608060405234801561001057600080fd5b50600436106100415760003560e01c806307f6435b1461004657806353414eb814610076578063a47bc27514610092575b600080fd5b610060600480360381019061005b91906102ae565b6100c2565b60405161006d91906102ea565b60405180910390f35b610090600480360381019061008b91906102ae565b6100da565b005b6100ac60048036038101906100a79190610363565b610244565b6040516100b991906103be565b60405180910390f35b60016020528060005260406000206000915090505481565b60008082815260200190815260200160002060003373ffffffffffffffffffffffffffffffffffffffff1673ffffffffffffffffffffffffffffffffffffffff16815260200190815260200160002060009054906101000a900460ff1615610177576040517f08c379a000000000000000000000000000000000000000000000000000000000815260040161016e9061045c565b60405180910390fd5b600160008083815260200190815260200160002060003373ffffffffffffffffffffffffffffffffffffffff1673ffffffffffffffffffffffffffffffffffffffff16815260200190815260200160002060006101000a81548160ff021916908315150217905550600160008281526020019081526020016000206000815480929190610203906104ab565b91905055507f3c360dad515fd2d40cc40d25f5664c341606b922cf2208f64aff1e5591f84ed28133604051610239929190610502565b60405180910390a150565b60006020528160005260406000206020528060005260406000206000915091509054906101000a900460ff1681565b600080fd5b6000819050919050565b61028b81610278565b811461029657600080fd5b50565b6000813590506102a881610282565b92915050565b6000602082840312156102c4576102c3610273565b5b60006102d284828501610299565b91505092915050565b6102e481610278565b82525050565b60006020820190506102ff60008301846102db565b92915050565b600073ffffffffffffffffffffffffffffffffffffffff82169050919050565b600061033082610305565b9050919050565b61034081610325565b811461034b57600080fd5b50565b60008135905061035d81610337565b92915050565b6000806040838503121561037a57610379610273565b5b600061038885828601610299565b92505060206103998582860161034e565b9150509250929050565b60008115159050919050565b6103b8816103a3565b82525050565b60006020820190506103d360008301846103af565b92915050565b600082825260208201905092915050565b7f53656c662d73747265616d696e67206f72206475706c6963617465206c69737460008201527f656e65722064657465637465642e000000000000000000000000000000000000602082015250565b6000610446602e836103d9565b9150610451826103ea565b604082019050919050565b6000602082019050818103600083015261047581610439565b9050919050565b7f4e487b7100000000000000000000000000000000000000000000000000000000600052601160045260246000fd5b60006104b682610278565b91507fffffffffffffffffffffffffffffffffffffffffffffffffffffffffffffffff82036104e8576104e761047c565b5b600182019050919050565b6104fc81610325565b82525050565b600060408201905061051760008301856102db565b61052460208301846104f3565b939250505056fea264697066735822122042c6cebdc7bf2d0552765bbfd1857021b9481b0a17ddca9c4d3ceb2393cef5f664736f6c63430008140033",
  "linkReferences": {},
  "deployedLinkReferences": {}
}